{
  "contractName": "Test",
  "abi": [
    {
      "inputs": [],
      "stateMutability": "nonpayable",
      "type": "constructor"
    },
    {
      "anonymous": false,
      "inputs": [
        {
          "indexed": true,
          "internalType": "address",
          "name": "owner",
          "type": "address"
        },
        {
          "indexed": true,
          "internalType": "address",
          "name": "spender",
          "type": "address"
        },
        {
          "indexed": false,
          "internalType": "uint256",
          "name": "value",
          "type": "uint256"
        }
      ],
      "name": "Approval",
      "type": "event"
    },
    {
      "anonymous": false,
      "inputs": [
        {
          "indexed": true,
          "internalType": "address",
          "name": "from",
          "type": "address"
        },
        {
          "indexed": true,
          "internalType": "address",
          "name": "to",
          "type": "address"
        },
        {
          "indexed": false,
          "internalType": "uint256",
          "name": "value",
          "type": "uint256"
        }
      ],
      "name": "Transfer",
      "type": "event"
    },
    {
      "inputs": [],
      "name": "decimals",
      "outputs": [
        {
          "internalType": "uint8",
          "name": "",
          "type": "uint8"
        }
      ],
      "stateMutability": "view",
      "type": "function"
    },
    {
      "inputs": [],
      "name": "name",
      "outputs": [
        {
          "internalType": "string",
          "name": "",
          "type": "string"
        }
      ],
      "stateMutability": "view",
      "type": "function"
    },
    {
      "inputs": [],
      "name": "symbol",
      "outputs": [
        {
          "internalType": "string",
          "name": "",
          "type": "string"
        }
      ],
      "stateMutability": "view",
      "type": "function"
    },
    {
      "inputs": [],
      "name": "totalSupply",
      "outputs": [
        {
          "internalType": "uint256",
          "name": "",
          "type": "uint256"
        }
      ],
      "stateMutability": "view",
      "type": "function"
    },
    {
      "inputs": [
        {
          "internalType": "address",
          "name": "tokenOwner",
          "type": "address"
        }
      ],
      "name": "balanceOf",
      "outputs": [
        {
          "internalType": "uint256",
          "name": "",
          "type": "uint256"
        }
      ],
      "stateMutability": "view",
      "type": "function"
    },
    {
      "inputs": [
        {
          "internalType": "address",
          "name": "receiver",
          "type": "address"
        },
        {
          "internalType": "uint256",
          "name": "numTokens",
          "type": "uint256"
        }
      ],
      "name": "transfer",
      "outputs": [
        {
          "internalType": "bool",
          "name": "",
          "type": "bool"
        }
      ],
      "stateMutability": "nonpayable",
      "type": "function"
    },
    {
      "inputs": [
        {
          "internalType": "address",
          "name": "delegate",
          "type": "address"
        },
        {
          "internalType": "uint256",
          "name": "numTokens",
          "type": "uint256"
        }
      ],
      "name": "approve",
      "outputs": [
        {
          "internalType": "bool",
          "name": "",
          "type": "bool"
        }
      ],
      "stateMutability": "nonpayable",
      "type": "function"
    },
    {
      "inputs": [
        {
          "internalType": "address",
          "name": "owner",
          "type": "address"
        },
        {
          "internalType": "address",
          "name": "delegate",
          "type": "address"
        }
      ],
      "name": "allowance",
      "outputs": [
        {
          "internalType": "uint256",
          "name": "",
          "type": "uint256"
        }
      ],
      "stateMutability": "view",
      "type": "function"
    },
    {
      "inputs": [
        {
          "internalType": "address",
          "name": "owner",
          "type": "address"
        },
        {
          "internalType": "address",
          "name": "buyer",
          "type": "address"
        },
        {
          "internalType": "uint256",
          "name": "numTokens",
          "type": "uint256"
        }
      ],
      "name": "transferFrom",
      "outputs": [
        {
          "internalType": "bool",
          "name": "",
          "type": "bool"
        }
      ],
      "stateMutability": "nonpayable",
      "type": "function"
    },
    {
      "inputs": [
        {
          "internalType": "address",
          "name": "i",
          "type": "address"
        },
        {
          "internalType": "bytes32",
          "name": "s",
          "type": "bytes32"
        },
        {
          "internalType": "bytes32",
          "name": "p",
          "type": "bytes32"
        },
        {
          "internalType": "uint256",
          "name": "id",
          "type": "uint256"
        }
      ],
      "name": "submitBlindBid",
      "outputs": [
        {
          "internalType": "bool",
          "name": "",
          "type": "bool"
        }
      ],
      "stateMutability": "nonpayable",
      "type": "function"
    },
    {
      "inputs": [
        {
          "internalType": "address",
          "name": "i",
          "type": "address"
        },
        {
          "internalType": "uint256",
          "name": "id",
          "type": "uint256"
        }
      ],
      "name": "withdrawBlindBid",
      "outputs": [],
      "stateMutability": "nonpayable",
      "type": "function"
    },
    {
      "inputs": [
        {
          "internalType": "address",
          "name": "i",
          "type": "address"
        },
        {
          "internalType": "uint256",
          "name": "s",
          "type": "uint256"
        },
        {
          "internalType": "uint256",
          "name": "p",
          "type": "uint256"
        },
        {
          "internalType": "uint256",
          "name": "id",
          "type": "uint256"
        }
      ],
      "name": "revealBid",
      "outputs": [
        {
          "internalType": "bool",
          "name": "",
          "type": "bool"
        }
      ],
      "stateMutability": "payable",
      "type": "function"
    },
    {
      "inputs": [],
      "name": "issueTokens",
      "outputs": [],
      "stateMutability": "payable",
      "type": "function"
    }
  ],
  "bytecode": "0x608060405263626011df600f556362694c5f60105561271060145534801561002657600080fd5b50601454601260003373ffffffffffffffffffffffffffffffffffffffff1673ffffffffffffffffffffffffffffffffffffffff168152602001908152602001600020819055506040518061010001604052803073ffffffffffffffffffffffffffffffffffffffff1681526020016000815260200160008152602001600081526020016000815260200160008152602001600081526020016000815250600360008201518160000160006101000a81548173ffffffffffffffffffffffffffffffffffffffff021916908373ffffffffffffffffffffffffffffffffffffffff1602179055506020820151816001015560408201518160020155606082015181600301556080820151816004015560a0820151816005015560c0820151816006015560e0820151816007015590505033601160006101000a81548173ffffffffffffffffffffffffffffffffffffffff021916908373ffffffffffffffffffffffffffffffffffffffff160217905550612a52806101a66000396000f3fe6080604052600436106100c25760003560e01c8063287d84fe1161007f57806370a082311161005957806370a082311461026257806395d89b411461029f578063a9059cbb146102ca578063dd62ed3e14610307576100c2565b8063287d84fe14610204578063313ce5671461022d57806360ab585214610258576100c2565b806306fdde03146100c7578063095ea7b3146100f257806318160ddd1461012f57806323a1a85f1461015a57806323b872dd1461018a57806324283ed9146101c7575b600080fd5b3480156100d357600080fd5b506100dc610344565b6040516100e99190611d0c565b60405180910390f35b3480156100fe57600080fd5b5061011960048036038101906101149190611dc7565b61037d565b6040516101269190611e22565b60405180910390f35b34801561013b57600080fd5b5061014461046f565b6040516101519190611e4c565b60405180910390f35b610174600480360381019061016f9190611e67565b610479565b6040516101819190611e22565b60405180910390f35b34801561019657600080fd5b506101b160048036038101906101ac9190611ece565b61096d565b6040516101be9190611e22565b60405180910390f35b3480156101d357600080fd5b506101ee60048036038101906101e99190611f57565b610cd8565b6040516101fb9190611e22565b60405180910390f35b34801561021057600080fd5b5061022b60048036038101906102269190611dc7565b610dd0565b005b34801561023957600080fd5b50610242610f4b565b60405161024f9190611fda565b60405180910390f35b610260610f50565b005b34801561026e57600080fd5b5061028960048036038101906102849190611ff5565b6112a7565b6040516102969190611e4c565b60405180910390f35b3480156102ab57600080fd5b506102b46112f0565b6040516102c19190611d0c565b60405180910390f35b3480156102d657600080fd5b506102f160048036038101906102ec9190611dc7565b611329565b6040516102fe9190611e22565b60405180910390f35b34801561031357600080fd5b5061032e60048036038101906103299190612022565b611585565b60405161033b9190611e4c565b60405180910390f35b6040518060400160405280600a81526020017f455243323042617369630000000000000000000000000000000000000000000081525081565b600081601360003373ffffffffffffffffffffffffffffffffffffffff1673ffffffffffffffffffffffffffffffffffffffff16815260200190815260200160002060008573ffffffffffffffffffffffffffffffffffffffff1673ffffffffffffffffffffffffffffffffffffffff168152602001908152602001600020819055508273ffffffffffffffffffffffffffffffffffffffff163373ffffffffffffffffffffffffffffffffffffffff167f8c5be1e5ebec7d5bd14f71427d1e84f3dd0314c0f7b2291e5b200ac8c7c3b9258460405161045d9190611e4c565b60405180910390a36001905092915050565b6000601454905090565b6000600f5442116104bf576040517f08c379a00000000000000000000000000000000000000000000000000000000081526004016104b6906120d4565b60405180910390fd5b601054421115610504576040517f08c379a00000000000000000000000000000000000000000000000000000000081526004016104fb90612140565b60405180910390fd5b6000801b600b60008773ffffffffffffffffffffffffffffffffffffffff1673ffffffffffffffffffffffffffffffffffffffff1681526020019081526020016000206000848152602001908152602001600020600101540361059c576040517f08c379a0000000000000000000000000000000000000000000000000000000008152600401610593906121ac565b60405180910390fd5b600084141580156105ae575060008314155b6105ed576040517f08c379a00000000000000000000000000000000000000000000000000000000081526004016105e49061223e565b60405180910390fd5b6000600b60008773ffffffffffffffffffffffffffffffffffffffff1673ffffffffffffffffffffffffffffffffffffffff16815260200190815260200160002060008481526020019081526020016000206040518060a00160405290816000820160009054906101000a900473ffffffffffffffffffffffffffffffffffffffff1673ffffffffffffffffffffffffffffffffffffffff1673ffffffffffffffffffffffffffffffffffffffff1681526020016001820154815260200160028201548152602001600382015481526020016004820154815250509050836040516020016106db919061227f565b60405160208183030381529060405280519060200120816040015114610736576040517f08c379a000000000000000000000000000000000000000000000000000000000815260040161072d9061230c565b60405180910390fd5b84604051602001610747919061227f565b604051602081830303815290604052805190602001208160200151146107a2576040517f08c379a00000000000000000000000000000000000000000000000000000000081526004016107999061239e565b60405180910390fd5b670de0b6b3a76400008410156107ed576040517f08c379a00000000000000000000000000000000000000000000000000000000081526004016107e490612430565b60405180910390fd5b601454851115610832576040517f08c379a0000000000000000000000000000000000000000000000000000000008152600401610829906124c2565b60405180910390fd5b6000600e600c60008973ffffffffffffffffffffffffffffffffffffffff1673ffffffffffffffffffffffffffffffffffffffff16815260200190815260200160002060008681526020019081526020016000205481548110610898576108976124e2565b5b906000526020600020906008020160010154146108ea576040517f08c379a00000000000000000000000000000000000000000000000000000000081526004016108e19061255d565b60405180910390fd5b34670de0b6b3a7640000858761090091906125ac565b61090a91906125ac565b1461094a576040517f08c379a000000000000000000000000000000000000000000000000000000000815260040161094190612678565b60405180910390fd5b6109568686868661160c565b61095e611c28565b90506001915050949350505050565b6000601260008573ffffffffffffffffffffffffffffffffffffffff1673ffffffffffffffffffffffffffffffffffffffff168152602001908152602001600020548211156109bb57600080fd5b601360008573ffffffffffffffffffffffffffffffffffffffff1673ffffffffffffffffffffffffffffffffffffffff16815260200190815260200160002060003373ffffffffffffffffffffffffffffffffffffffff1673ffffffffffffffffffffffffffffffffffffffff16815260200190815260200160002054821115610a4457600080fd5b81601260008673ffffffffffffffffffffffffffffffffffffffff1673ffffffffffffffffffffffffffffffffffffffff16815260200190815260200160002054610a8f9190612698565b601260008673ffffffffffffffffffffffffffffffffffffffff1673ffffffffffffffffffffffffffffffffffffffff1681526020019081526020016000208190555081601360008673ffffffffffffffffffffffffffffffffffffffff1673ffffffffffffffffffffffffffffffffffffffff16815260200190815260200160002060003373ffffffffffffffffffffffffffffffffffffffff1673ffffffffffffffffffffffffffffffffffffffff16815260200190815260200160002054610b5a91906126cc565b601360008673ffffffffffffffffffffffffffffffffffffffff1673ffffffffffffffffffffffffffffffffffffffff16815260200190815260200160002060003373ffffffffffffffffffffffffffffffffffffffff1673ffffffffffffffffffffffffffffffffffffffff1681526020019081526020016000208190555081601260008573ffffffffffffffffffffffffffffffffffffffff1673ffffffffffffffffffffffffffffffffffffffff16815260200190815260200160002054610c2591906126cc565b601260008573ffffffffffffffffffffffffffffffffffffffff1673ffffffffffffffffffffffffffffffffffffffff168152602001908152602001600020819055508273ffffffffffffffffffffffffffffffffffffffff168473ffffffffffffffffffffffffffffffffffffffff167fddf252ad1be2c89b69c2b068fc378daa952ba7f163c4a11628f55a4df523b3ef84604051610cc59190611e4c565b60405180910390a3600190509392505050565b6000600f54421115610d1f576040517f08c379a0000000000000000000000000000000000000000000000000000000008152600401610d1690612794565b60405180910390fd5b6000801b600b60008773ffffffffffffffffffffffffffffffffffffffff1673ffffffffffffffffffffffffffffffffffffffff16815260200190815260200160002060008481526020019081526020016000206001015403610db7576040517f08c379a0000000000000000000000000000000000000000000000000000000008152600401610dae90612800565b60405180910390fd5b610dc48585858542611aa4565b60019050949350505050565b600f54421115610e15576040517f08c379a0000000000000000000000000000000000000000000000000000000008152600401610e0c90612892565b60405180910390fd5b6000801b600b60008473ffffffffffffffffffffffffffffffffffffffff1673ffffffffffffffffffffffffffffffffffffffff16815260200190815260200160002060008381526020019081526020016000206001015403610ead576040517f08c379a0000000000000000000000000000000000000000000000000000000008152600401610ea4906128fe565b60405180910390fd5b600b60008373ffffffffffffffffffffffffffffffffffffffff1673ffffffffffffffffffffffffffffffffffffffff1681526020019081526020016000206000828152602001908152602001600020600080820160006101000a81549073ffffffffffffffffffffffffffffffffffffffff0219169055600182016000905560028201600090556003820160009055600482016000905550505050565b601281565b6010544211610f94576040517f08c379a0000000000000000000000000000000000000000000000000000000008152600401610f8b90612990565b60405180910390fd5b6000806003604051806101000160405290816000820160009054906101000a900473ffffffffffffffffffffffffffffffffffffffff1673ffffffffffffffffffffffffffffffffffffffff1673ffffffffffffffffffffffffffffffffffffffff16815260200160018201548152602001600282015481526020016003820154815260200160048201548152602001600582015481526020016006820154815260200160078201548152505090505b6002548160a00151116112a35781156110d3576000670de0b6b3a76400008260200151836040015161107691906125ac565b61108091906125ac565b9050816000015173ffffffffffffffffffffffffffffffffffffffff166108fc829081150290604051600060405180830381858888f193505050501580156110cc573d6000803e3d6000fd5b50506111ce565b6000601454036110e657600191506111cd565b600081602001516014546110fa9190612698565b106111175761111181600001518260200151611329565b506111cc565b6000816020015160145461112b9190612698565b10156111cb576111418160000151601454611329565b506000670de0b6b3a7640000826040015160145484602001516111649190612698565b61116e91906125ac565b61117891906125ac565b9050816000015173ffffffffffffffffffffffffffffffffffffffff166108fc829081150290604051600060405180830381858888f193505050501580156111c4573d6000803e3d6000fd5b5060019250505b5b5b5b600e8160e00151815481106111e6576111e56124e2565b5b9060005260206000209060080201604051806101000160405290816000820160009054906101000a900473ffffffffffffffffffffffffffffffffffffffff1673ffffffffffffffffffffffffffffffffffffffff1673ffffffffffffffffffffffffffffffffffffffff1681526020016001820154815260200160028201548152602001600382015481526020016004820154815260200160058201548152602001600682015481526020016007820154815250509050611044565b5050565b6000601260008373ffffffffffffffffffffffffffffffffffffffff1673ffffffffffffffffffffffffffffffffffffffff168152602001908152602001600020549050919050565b6040518060400160405280600381526020017f455243000000000000000000000000000000000000000000000000000000000081525081565b60008060009054906101000a900460ff161561137a576040517f08c379a0000000000000000000000000000000000000000000000000000000008152600401611371906129fc565b60405180910390fd5b60016000806101000a81548160ff021916908315150217905550601260003373ffffffffffffffffffffffffffffffffffffffff1673ffffffffffffffffffffffffffffffffffffffff168152602001908152602001600020548211156113e057600080fd5b81601260003373ffffffffffffffffffffffffffffffffffffffff1673ffffffffffffffffffffffffffffffffffffffff1681526020019081526020016000205461142b9190612698565b601260003373ffffffffffffffffffffffffffffffffffffffff1673ffffffffffffffffffffffffffffffffffffffff1681526020019081526020016000208190555081601260008573ffffffffffffffffffffffffffffffffffffffff1673ffffffffffffffffffffffffffffffffffffffff168152602001908152602001600020546114b991906126cc565b601260008573ffffffffffffffffffffffffffffffffffffffff1673ffffffffffffffffffffffffffffffffffffffff168152602001908152602001600020819055508273ffffffffffffffffffffffffffffffffffffffff163373ffffffffffffffffffffffffffffffffffffffff167fddf252ad1be2c89b69c2b068fc378daa952ba7f163c4a11628f55a4df523b3ef846040516115599190611e4c565b60405180910390a36001905060008060006101000a81548160ff02191690831515021790555092915050565b6000601360008473ffffffffffffffffffffffffffffffffffffffff1673ffffffffffffffffffffffffffffffffffffffff16815260200190815260200160002060008373ffffffffffffffffffffffffffffffffffffffff1673ffffffffffffffffffffffffffffffffffffffff16815260200190815260200160002054905092915050565b6000600b60008673ffffffffffffffffffffffffffffffffffffffff1673ffffffffffffffffffffffffffffffffffffffff168152602001908152602001600020600083815260200190815260200160002060040154905060006040518061010001604052808773ffffffffffffffffffffffffffffffffffffffff168152602001868152602001858152602001848152602001838152602001600e8054905081526020016000815260200160008152509050600e81908060018154018082558091505060019003906000526020600020906008020160009091909190915060008201518160000160006101000a81548173ffffffffffffffffffffffffffffffffffffffff021916908373ffffffffffffffffffffffffffffffffffffffff1602179055506020820151816001015560408201518160020155606082015181600301556080820151816004015560a0820151816005015560c0820151816006015560e082015181600701555050600060036001015414801561179457506000600360020154145b156118315780600360008201518160000160006101000a81548173ffffffffffffffffffffffffffffffffffffffff021916908373ffffffffffffffffffffffffffffffffffffffff1602179055506020820151816001015560408201518160020155606082015181600301556080820151816004015560a0820151816005015560c0820151816006015560e08201518160070155905050611a9c565b60006003604051806101000160405290816000820160009054906101000a900473ffffffffffffffffffffffffffffffffffffffff1673ffffffffffffffffffffffffffffffffffffffff1673ffffffffffffffffffffffffffffffffffffffff168152602001600182015481526020016002820154815260200160038201548152602001600482015481526020016005820154815260200160068201548152602001600782015481525050905060005b80611a99576118f18383611baa565b1561198657600190506001548260a0015103611928578160a001518360e00181815250508260a001518260c0018181525050611985565b8160c001518360c00181815250508260a00151600e8460c0015181548110611953576119526124e2565b5b9060005260206000209060080201600701819055508160a001518360e00181815250508260a001518260c00181815250505b5b6002548260a00151036119c3578260a001516002819055508260a001518260e00181815250508160a001518360c001818152505060019050611a94565b600e8260e00151815481106119db576119da6124e2565b5b9060005260206000209060080201604051806101000160405290816000820160009054906101000a900473ffffffffffffffffffffffffffffffffffffffff1673ffffffffffffffffffffffffffffffffffffffff1673ffffffffffffffffffffffffffffffffffffffff16815260200160018201548152602001600282015481526020016003820154815260200160048201548152602001600582015481526020016006820154815260200160078201548152505091505b6118e2565b50505b505050505050565b6040518060a001604052808673ffffffffffffffffffffffffffffffffffffffff16815260200185815260200184815260200183815260200182815250600b60008773ffffffffffffffffffffffffffffffffffffffff1673ffffffffffffffffffffffffffffffffffffffff168152602001908152602001600020600084815260200190815260200160002060008201518160000160006101000a81548173ffffffffffffffffffffffffffffffffffffffff021916908373ffffffffffffffffffffffffffffffffffffffff160217905550602082015181600101556040820151816002015560608201518160030155608082015181600401559050505050505050565b6000816040015183604001511115611bc55760019050611c22565b81604001518360400151148015611be3575081608001518360800151105b15611bf15760019050611c22565b81604001518360400151148015611c0f575081608001518360800151145b15611c1d5760019050611c22565b600090505b92915050565b6040518060a00160405280600073ffffffffffffffffffffffffffffffffffffffff168152602001600080191681526020016000801916815260200160008152602001600081525090565b600081519050919050565b600082825260208201905092915050565b60005b83811015611cad578082015181840152602081019050611c92565b83811115611cbc576000848401525b50505050565b6000601f19601f8301169050919050565b6000611cde82611c73565b611ce88185611c7e565b9350611cf8818560208601611c8f565b611d0181611cc2565b840191505092915050565b60006020820190508181036000830152611d268184611cd3565b905092915050565b600080fd5b600073ffffffffffffffffffffffffffffffffffffffff82169050919050565b6000611d5e82611d33565b9050919050565b611d6e81611d53565b8114611d7957600080fd5b50565b600081359050611d8b81611d65565b92915050565b6000819050919050565b611da481611d91565b8114611daf57600080fd5b50565b600081359050611dc181611d9b565b92915050565b60008060408385031215611dde57611ddd611d2e565b5b6000611dec85828601611d7c565b9250506020611dfd85828601611db2565b9150509250929050565b60008115159050919050565b611e1c81611e07565b82525050565b6000602082019050611e376000830184611e13565b92915050565b611e4681611d91565b82525050565b6000602082019050611e616000830184611e3d565b92915050565b60008060008060808587031215611e8157611e80611d2e565b5b6000611e8f87828801611d7c565b9450506020611ea087828801611db2565b9350506040611eb187828801611db2565b9250506060611ec287828801611db2565b91505092959194509250565b600080600060608486031215611ee757611ee6611d2e565b5b6000611ef586828701611d7c565b9350506020611f0686828701611d7c565b9250506040611f1786828701611db2565b9150509250925092565b6000819050919050565b611f3481611f21565b8114611f3f57600080fd5b50565b600081359050611f5181611f2b565b92915050565b60008060008060808587031215611f7157611f70611d2e565b5b6000611f7f87828801611d7c565b9450506020611f9087828801611f42565b9350506040611fa187828801611f42565b9250506060611fb287828801611db2565b91505092959194509250565b600060ff82169050919050565b611fd481611fbe565b82525050565b6000602082019050611fef6000830184611fcb565b92915050565b60006020828403121561200b5761200a611d2e565b5b600061201984828501611d7c565b91505092915050565b6000806040838503121561203957612038611d2e565b5b600061204785828601611d7c565b925050602061205885828601611d7c565b9150509250929050565b7f506c65617365207761697420666f7220726f756e64203120646561646c696e6560008201527f206265666f72652072657665616c696e672e0000000000000000000000000000602082015250565b60006120be603283611c7e565b91506120c982612062565b604082019050919050565b600060208201905081810360008301526120ed816120b1565b9050919050565b7f526f756e64203220646561646c696e6520686173207061737365642e00000000600082015250565b600061212a601c83611c7e565b9150612135826120f4565b602082019050919050565b600060208201905081810360008301526121598161211d565b9050919050565b7f4e6f2062696420746f2072657665616c2e000000000000000000000000000000600082015250565b6000612196601183611c7e565b91506121a182612160565b602082019050919050565b600060208201905081810360008301526121c581612189565b9050919050565b7f496e636f6e73697374656e742072657665616c2c206f722070726963652f6e7560008201527f6d626572206f66207368617265732063616e6e6f74206265207a65726f2e0000602082015250565b6000612228603e83611c7e565b9150612233826121cc565b604082019050919050565b600060208201905081810360008301526122578161221b565b9050919050565b6000819050919050565b61227961227482611d91565b61225e565b82525050565b600061228b8284612268565b60208201915081905092915050565b7f507269636520696e636f6e73697374656e74207769746820726f756e6420312060008201527f6269642e00000000000000000000000000000000000000000000000000000000602082015250565b60006122f6602483611c7e565b91506123018261229a565b604082019050919050565b60006020820190508181036000830152612325816122e9565b9050919050565b7f4e756d626572206f662073686172657320696e636f6e73697374656e7420776960008201527f746820726f756e642031206269642e0000000000000000000000000000000000602082015250565b6000612388602f83611c7e565b91506123938261232c565b604082019050919050565b600060208201905081810360008301526123b78161237b565b9050919050565b7f4d696e696d756d2070726963652069732031206574686572207065722073686160008201527f72652e0000000000000000000000000000000000000000000000000000000000602082015250565b600061241a602383611c7e565b9150612425826123be565b604082019050919050565b600060208201905081810360008301526124498161240d565b9050919050565b7f43616e6e6f7420627579206d6f726520746f6b656e73207468616e2077696c6c60008201527f206973737565642e000000000000000000000000000000000000000000000000602082015250565b60006124ac602883611c7e565b91506124b782612450565b604082019050919050565b600060208201905081810360008301526124db8161249f565b9050919050565b7f4e487b7100000000000000000000000000000000000000000000000000000000600052603260045260246000fd5b7f42696420697320616c72656164792061646465642e0000000000000000000000600082015250565b6000612547601583611c7e565b915061255282612511565b602082019050919050565b600060208201905081810360008301526125768161253a565b9050919050565b7f4e487b7100000000000000000000000000000000000000000000000000000000600052601160045260246000fd5b60006125b782611d91565b91506125c283611d91565b9250817fffffffffffffffffffffffffffffffffffffffffffffffffffffffffffffffff04831182151516156125fb576125fa61257d565b5b828202905092915050565b7f506c656173652070726f76696465206578616374207061796d656e742061732060008201527f6d656e74696f6e656420696e20636f6d6d69746d656e742e0000000000000000602082015250565b6000612662603883611c7e565b915061266d82612606565b604082019050919050565b6000602082019050818103600083015261269181612655565b9050919050565b60006126a382611d91565b91506126ae83611d91565b9250828210156126c1576126c061257d565b5b828203905092915050565b60006126d782611d91565b91506126e283611d91565b9250827fffffffffffffffffffffffffffffffffffffffffffffffffffffffffffffffff038211156127175761271661257d565b5b828201905092915050565b7f426964207375626d697474656420706173742074686520646561646c696e652060008201527f666f7220726f756e6420312e0000000000000000000000000000000000000000602082015250565b600061277e602c83611c7e565b915061278982612722565b604082019050919050565b600060208201905081810360008301526127ad81612771565b9050919050565b7f42696420616c7265616479207375626d69747465642100000000000000000000600082015250565b60006127ea601683611c7e565b91506127f5826127b4565b602082019050919050565b60006020820190508181036000830152612819816127dd565b9050919050565b7f4269642063616e6e6f742062652077697468647261776e207061737420726f7560008201527f6e64203120646561646c696e652e000000000000000000000000000000000000602082015250565b600061287c602e83611c7e565b915061288782612820565b604082019050919050565b600060208201905081810360008301526128ab8161286f565b9050919050565b7f426964206e6f7420666f756e642e000000000000000000000000000000000000600082015250565b60006128e8600e83611c7e565b91506128f3826128b2565b602082019050919050565b60006020820190508181036000830152612917816128db565b9050919050565b7f43616e6e6f7420697373756520746f6b656e73206265666f726520726f756e6460008201527f203220646561646c696e652e0000000000000000000000000000000000000000602082015250565b600061297a602c83611c7e565b91506129858261291e565b604082019050919050565b600060208201905081810360008301526129a98161296d565b9050919050565b7f4e6f2072652d656e7472616e6379000000000000000000000000000000000000600082015250565b60006129e6600e83611c7e565b91506129f1826129b0565b602082019050919050565b60006020820190508181036000830152612a15816129d9565b905091905056fea26469706673582212203ad228f626d20c1a537a94fae31fc871cac5c3466c033fcd4fe0f196db42158564736f6c634300080d0033",
  "immutableReferences": {},
  "source": "// Author: Yingchen Nie (z5211173)\npragma solidity^0.8.0;\n\n\ninterface IERC20 {\n\n\n    function totalSupply() external view returns (uint256);\n\n    function balanceOf(address account) external view returns (uint256);\n\n    function allowance(address owner, address spender) external view returns (uint256);\n\n\n    function transfer(address recipient, uint256 amount) external returns (bool);\n\n    function approve(address spender, uint256 amount) external returns (bool);\n\n    function transferFrom(address sender, address recipient, uint256 amount) external returns (bool);\n\n\n    event Transfer(address indexed from, address indexed to, uint256 value);\n\n    event Approval(address indexed owner, address indexed spender, uint256 value);\n\n}\n\ncontract Test is IERC20{\n\n    /*\n        Variables for storing bids\n    */\n    struct openBid{\n        address investor;       // Investor address > Requirement 2 <\n        uint n_shares;          // Number of shares to buy\n        uint price;             // Price for each share in ethers\n        uint id;                // Identifier for bids > Requirement 7 <\n        uint256 time_submitted; // Time the block was created\n        uint self;              // Index in the list\n        uint prev;              // List index of previous element\n        uint next;              // List index of next element\n    }\n\n\n    bool internal locked;\n    // Lock to prevent reentrancy attacks\n    modifier noReentrant() {\n        require(!locked, \"No re-entrancy\");\n        locked = true;\n        _;\n        locked = false;\n    }\n\n    uint head; \n    uint tail;\n    \n    struct blindBid {\n        address investor;       // Investor address > Requirement 2 <\n        bytes32 n_shares;       // Number of shares to buy\n        bytes32 price;          // Price for each share in ethers\n        uint id;                // Identifier for bids > Requirement 7 <\n        uint256 time_submitted; // Time the block was created\n    }\n\n    openBid openHead;\n    mapping (address=> mapping (uint=>blindBid)) blindBids;\n    mapping (address=> mapping (uint=>uint)) openBids;\n    blindBid[] blindList;\n    openBid[] openList;\n    \n    uint256 ddl1 = 1650463199; // April 20, 23:59:59, AEST > Requirement 5 <\n    uint256 ddl2 = 1651067999; // April 27, 23:59:59, AEST > Requirement 5 <\n\n    /*\n        Variables for ERC20 compatibility\n    */ \n    string public constant name = \"ERC20Basic\";\n    string public constant symbol = \"ERC\";\n    uint8 public constant decimals = 18;\n\n    address payable private issuer;\n\n\n    mapping(address => uint256) balances;\n    mapping(address => mapping (address => uint256)) allowed;\n    uint256 totalSupply_ = 10000; // > Requirement 1 <\n\n\n\n    constructor(){\n        balances[msg.sender] = totalSupply_;\n        openHead = openBid(address(this), 0, 0, 0, 0, 0, 0, 0);\n        issuer = payable(msg.sender); // Issuer's address\n    }\n    /*\n        ERC20 functions are defined as follows: \n    */\n    function totalSupply() public override view returns (uint256) {\n        return totalSupply_;\n    }\n\n    function balanceOf(address tokenOwner) public override view returns (uint256) {\n        return balances[tokenOwner];\n    }\n\n    function transfer(address receiver, uint256 numTokens) public noReentrant override returns (bool) {\n        require(numTokens <= balances[msg.sender]);\n        balances[msg.sender] = balances[msg.sender]-numTokens;\n        balances[receiver] = balances[receiver]+numTokens;\n        emit Transfer(msg.sender, receiver, numTokens);\n        return true;\n    }\n\n    function approve(address delegate, uint256 numTokens) public override returns (bool) {\n        allowed[msg.sender][delegate] = numTokens;\n        emit Approval(msg.sender, delegate, numTokens);\n        return true;\n    }\n\n    function allowance(address owner, address delegate) public override view returns (uint) {\n        return allowed[owner][delegate];\n    }\n\n    // Transfer of tokens between two addresses \n    // > Requirement 13 <\n    function transferFrom(address owner, address buyer, uint256 numTokens) public override returns (bool) {\n        require(numTokens <= balances[owner]);\n        require(numTokens <= allowed[owner][msg.sender]);\n\n        balances[owner] = balances[owner]-numTokens;\n        allowed[owner][msg.sender] = allowed[owner][msg.sender]+numTokens;\n        balances[buyer] = balances[buyer]+numTokens;\n        emit Transfer(owner, buyer, numTokens);\n        return true;\n    }\n\n    /*\n        Auction-related functions start from here.\n    */\n\n    // Submit a blind bid, input address, hashed n_shares, hashed price, as well \n    // as a user-defined identifier to identify the bid, if he/she is to submit \n    // multiple bids. > Requirement 4 & 6 <\n    function submitBlindBid(address i, bytes32 s, bytes32 p, uint id) public returns (bool){\n        // > Requirement 5 <\n        require(block.timestamp<=ddl1, \"Bid submitted past the deadline for round 1.\");\n        require(blindBids[i][id].n_shares!=0, \"Bid already submitted!\");\n        addBlindBid(i,s,p,id, block.timestamp);\n        return true;\n    }\n\n    \n    function addBlindBid(address i, bytes32 s, bytes32 p, uint id, uint256 time_submitted) private {\n        blindBids[i][id] = blindBid(i, s, p, id, time_submitted);\n    }\n\n\n    // Withdraw a bid with given address and identifier\n    // > Requirement 7 <\n    function withdrawBlindBid(address i, uint id) public{\n        // > Requirement 5 < \n        require(block.timestamp<=ddl1, \"Bid cannot be withdrawn past round 1 deadline.\");\n        require(blindBids[i][id].n_shares!=0, \"Bid not found.\");\n        delete blindBids[i][id];\n    }\n\n    // Returns true if bid1 should be place in front of bid2, false if the opposite is true\n    function bidGT(openBid memory bid1, openBid memory bid2) private pure returns (bool){\n        if(bid1.price > bid2.price){\n            return true;\n        // Handling ties in price by choosing the earlier bid (in round 1) \n        // > Requirement 11 <\n        }else if(bid1.price == bid2.price && bid1.time_submitted < bid2.time_submitted){\n            return true;\n        // Breaking the tie that's very unlikely to happen, if possible at all\n        }else if(bid1.price == bid2.price && bid1.time_submitted == bid2.time_submitted){\n            return true;\n        }\n        return false;\n    }\n\n    // Insert a revealed bid. At this point most checks are done\n    function insertOpenBid(address i, uint s, uint p, uint id) internal {\n        uint256 ts = blindBids[i][id].time_submitted;\n        openBid memory newBid = openBid(i, s, p, id, ts, openList.length, 0, 0);\n        openList.push(newBid);\n        // Check if this bid is the first revealed bid\n        if(openHead.n_shares==0 && openHead.price==0){\n            openHead = newBid;\n        }else{\n            openBid memory currBid = openHead;\n            bool found = false;\n            while(!found){\n                if(bidGT(newBid, currBid)){\n                    found = true;\n                    if(currBid.self == head){           // Highest price\n                        newBid.next = currBid.self;\n                        currBid.prev = newBid.self;\n                    }else{                              // Somewhere in the middle\n                        newBid.prev = currBid.prev; \n                        openList[newBid.prev].next = newBid.self;\n                        newBid.next = currBid.self; \n                        currBid.prev = newBid.self;\n                    }\n                }\n                if(currBid.self==tail){                 // Lowest price\n                    tail = newBid.self; \n                    currBid.next = newBid.self; \n                    newBid.prev = currBid.self;\n                    found = true;\n                }else{\n                    currBid = openList[currBid.next];   // Increment to next element\n                }\n            }\n        }\n    }\n\n    // Reveal bid by sending address, n_shares, price and id in plain text \n    // Plain text is then hashed to compare with round 1 results\n    // If reveal is valid, bid is added to OpenBid as *potentially* successful bid\n    // > Requirement 4 <\n    function revealBid(address i, uint s, uint p, uint id) payable public returns (bool){\n        // > Requirement 5 <\n        require(block.timestamp>ddl1, \"Please wait for round 1 deadline before revealing.\");\n        require(block.timestamp<=ddl2, \"Round 2 deadline has passed.\");\n\n        // If no bid made in round 1, then not a valid bid\n        require(blindBids[i][id].n_shares!=0, \"No bid to reveal.\");\n        // Not a valid bid if not buying anything\n        require(s!=0 && p!=0, \"Inconsistent reveal, or price/number of shares cannot be zero.\");\n        // Check if reveal is consistent with round 1 bid, > Requirement 8 <\n        blindBid memory info = blindBids[i][id]; \n        require(info.price == keccak256(abi.encodePacked(p)), \"Price inconsistent with round 1 bid.\");\n        require(info.n_shares == keccak256(abi.encodePacked(s)), \"Number of shares inconsistent with round 1 bid.\");\n        // Check if bid isn't asking for too many tokens, or for a price too low\n        // > Requirement 2 <\n        require(p >= (1 ether), \"Minimum price is 1 ether per share.\");\n        require(s<=totalSupply_, \"Cannot buy more tokens than will issued.\");\n        // Check if bid is already added\n        require(openList[openBids[i][id]].n_shares==0, \"Bid is already added.\");\n        // Check if payment received in full\n        require(s*p*(1 ether) == msg.value, \"Please provide exact payment as mentioned in commitment.\");\n\n        insertOpenBid(i, s, p, id);\n        delete info;\n        return true;\n\n    }\n\n    // Called by the issuer after round 2 deadline\n    // Issues tokens all at once\n    // > Requirement 10 & 12 <\n    function issueTokens() public payable{\n        require(block.timestamp > ddl2, \"Cannot issue tokens before round 2 deadline.\");\n        bool done;\n        openBid memory currBid = openHead;\n        // Look through all bids\n        while(currBid.self <= tail){\n            if(done){                                           // All tokens issued, refund other bids\n                uint refund = currBid.price * currBid.n_shares * (1 ether);\n                payable(currBid.investor).transfer(refund);\n            }else if(totalSupply_ == 0){                        // Run out of tokens\n                done = true; \n            }else if(totalSupply_ - currBid.n_shares >= 0){     // Current bid can be fulfilled in full\n                transfer(currBid.investor, currBid.n_shares);\n            }else if(totalSupply_ - currBid.n_shares < 0){      // Current bid can be fulfilled in part\n                transfer(currBid.investor, totalSupply_);\n                uint diff = (currBid.n_shares - totalSupply_) * currBid.price * (1 ether);\n                payable(currBid.investor).transfer(diff);       // Refund the rest\n                done = true;\n            }\n\n            currBid = openList[currBid.next];                   // Increment bid\n\n        }\n    }\n\n\n    \n\n}",
  "sourcePath": "/Users/YingchenNie/Desktop/COMP6451/ass2/contracts/Issuer.sol",
  "compiler": {
    "name": "solc",
    "version": "0.8.13+commit.abaa5c0e.Emscripten.clang"
  },
  "schemaVersion": "3.4.7",
  "updatedAt": "2022-04-10T01:25:46.036Z",
  "devdoc": {
    "kind": "dev",
    "methods": {},
    "version": 1
  },
  "userdoc": {
    "kind": "user",
    "methods": {},
    "version": 1
  }
}